{
  "_format": "hh-sol-artifact-1",
  "contractName": "AICreations",
  "sourceName": "contracts/AICreations.sol",
  "abi": [
    {
      "inputs": [
        {
          "internalType": "uint256",
          "name": "_salePrice",
          "type": "uint256"
        },
        {
          "internalType": "address",
          "name": "_beneficiary",
          "type": "address"
        }
      ],
      "stateMutability": "nonpayable",
      "type": "constructor"
    },
    {
      "anonymous": false,
      "inputs": [
        {
          "indexed": true,
          "internalType": "address",
          "name": "owner",
          "type": "address"
        },
        {
          "indexed": true,
          "internalType": "address",
          "name": "approved",
          "type": "address"
        },
        {
          "indexed": true,
          "internalType": "uint256",
          "name": "tokenId",
          "type": "uint256"
        }
      ],
      "name": "Approval",
      "type": "event"
    },
    {
      "anonymous": false,
      "inputs": [
        {
          "indexed": true,
          "internalType": "address",
          "name": "owner",
          "type": "address"
        },
        {
          "indexed": true,
          "internalType": "address",
          "name": "operator",
          "type": "address"
        },
        {
          "indexed": false,
          "internalType": "bool",
          "name": "approved",
          "type": "bool"
        }
      ],
      "name": "ApprovalForAll",
      "type": "event"
    },
    {
      "anonymous": false,
      "inputs": [
        {
          "indexed": true,
          "internalType": "address",
          "name": "previousOwner",
          "type": "address"
        },
        {
          "indexed": true,
          "internalType": "address",
          "name": "newOwner",
          "type": "address"
        }
      ],
      "name": "OwnershipTransferred",
      "type": "event"
    },
    {
      "anonymous": false,
      "inputs": [
        {
          "indexed": true,
          "internalType": "address",
          "name": "from",
          "type": "address"
        },
        {
          "indexed": true,
          "internalType": "address",
          "name": "to",
          "type": "address"
        },
        {
          "indexed": true,
          "internalType": "uint256",
          "name": "tokenId",
          "type": "uint256"
        }
      ],
      "name": "Transfer",
      "type": "event"
    },
    {
      "inputs": [
        {
          "internalType": "address",
          "name": "to",
          "type": "address"
        },
        {
          "internalType": "uint256",
          "name": "tokenId",
          "type": "uint256"
        }
      ],
      "name": "approve",
      "outputs": [],
      "stateMutability": "nonpayable",
      "type": "function"
    },
    {
      "inputs": [
        {
          "internalType": "address",
          "name": "owner",
          "type": "address"
        }
      ],
      "name": "balanceOf",
      "outputs": [
        {
          "internalType": "uint256",
          "name": "",
          "type": "uint256"
        }
      ],
      "stateMutability": "view",
      "type": "function"
    },
    {
      "inputs": [
        {
          "internalType": "uint256",
          "name": "tokenId",
          "type": "uint256"
        }
      ],
      "name": "getApproved",
      "outputs": [
        {
          "internalType": "address",
          "name": "",
          "type": "address"
        }
      ],
      "stateMutability": "view",
      "type": "function"
    },
    {
      "inputs": [
        {
          "internalType": "address",
          "name": "owner",
          "type": "address"
        },
        {
          "internalType": "address",
          "name": "operator",
          "type": "address"
        }
      ],
      "name": "isApprovedForAll",
      "outputs": [
        {
          "internalType": "bool",
          "name": "",
          "type": "bool"
        }
      ],
      "stateMutability": "view",
      "type": "function"
    },
    {
      "inputs": [],
      "name": "name",
      "outputs": [
        {
          "internalType": "string",
          "name": "",
          "type": "string"
        }
      ],
      "stateMutability": "view",
      "type": "function"
    },
    {
      "inputs": [],
      "name": "owner",
      "outputs": [
        {
          "internalType": "address",
          "name": "",
          "type": "address"
        }
      ],
      "stateMutability": "view",
      "type": "function"
    },
    {
      "inputs": [
        {
          "internalType": "uint256",
          "name": "tokenId",
          "type": "uint256"
        }
      ],
      "name": "ownerOf",
      "outputs": [
        {
          "internalType": "address",
          "name": "",
          "type": "address"
        }
      ],
      "stateMutability": "view",
      "type": "function"
    },
    {
      "inputs": [],
      "name": "renounceOwnership",
      "outputs": [],
      "stateMutability": "nonpayable",
      "type": "function"
    },
    {
      "inputs": [
        {
          "internalType": "address",
          "name": "to",
          "type": "address"
        },
        {
          "internalType": "string",
          "name": "uri",
          "type": "string"
        }
      ],
      "name": "safeMint",
      "outputs": [],
      "stateMutability": "payable",
      "type": "function"
    },
    {
      "inputs": [
        {
          "internalType": "address",
          "name": "from",
          "type": "address"
        },
        {
          "internalType": "address",
          "name": "to",
          "type": "address"
        },
        {
          "internalType": "uint256",
          "name": "tokenId",
          "type": "uint256"
        }
      ],
      "name": "safeTransferFrom",
      "outputs": [],
      "stateMutability": "nonpayable",
      "type": "function"
    },
    {
      "inputs": [
        {
          "internalType": "address",
          "name": "from",
          "type": "address"
        },
        {
          "internalType": "address",
          "name": "to",
          "type": "address"
        },
        {
          "internalType": "uint256",
          "name": "tokenId",
          "type": "uint256"
        },
        {
          "internalType": "bytes",
          "name": "data",
          "type": "bytes"
        }
      ],
      "name": "safeTransferFrom",
      "outputs": [],
      "stateMutability": "nonpayable",
      "type": "function"
    },
    {
      "inputs": [],
      "name": "salePrice",
      "outputs": [
        {
          "internalType": "uint256",
          "name": "",
          "type": "uint256"
        }
      ],
      "stateMutability": "view",
      "type": "function"
    },
    {
      "inputs": [
        {
          "internalType": "address",
          "name": "operator",
          "type": "address"
        },
        {
          "internalType": "bool",
          "name": "approved",
          "type": "bool"
        }
      ],
      "name": "setApprovalForAll",
      "outputs": [],
      "stateMutability": "nonpayable",
      "type": "function"
    },
    {
      "inputs": [
        {
          "internalType": "bytes4",
          "name": "interfaceId",
          "type": "bytes4"
        }
      ],
      "name": "supportsInterface",
      "outputs": [
        {
          "internalType": "bool",
          "name": "",
          "type": "bool"
        }
      ],
      "stateMutability": "view",
      "type": "function"
    },
    {
      "inputs": [],
      "name": "symbol",
      "outputs": [
        {
          "internalType": "string",
          "name": "",
          "type": "string"
        }
      ],
      "stateMutability": "view",
      "type": "function"
    },
    {
      "inputs": [
        {
          "internalType": "uint256",
          "name": "tokenId",
          "type": "uint256"
        }
      ],
      "name": "tokenURI",
      "outputs": [
        {
          "internalType": "string",
          "name": "",
          "type": "string"
        }
      ],
      "stateMutability": "view",
      "type": "function"
    },
    {
      "inputs": [
        {
          "internalType": "address",
          "name": "from",
          "type": "address"
        },
        {
          "internalType": "address",
          "name": "to",
          "type": "address"
        },
        {
          "internalType": "uint256",
          "name": "tokenId",
          "type": "uint256"
        }
      ],
      "name": "transferFrom",
      "outputs": [],
      "stateMutability": "nonpayable",
      "type": "function"
    },
    {
      "inputs": [
        {
          "internalType": "address",
          "name": "newOwner",
          "type": "address"
        }
      ],
      "name": "transferOwnership",
      "outputs": [],
      "stateMutability": "nonpayable",
      "type": "function"
    }
  ],
  "bytecode": "0x60806040523480156200001157600080fd5b50604051620038de380380620038de8339818101604052810190620000379190620002ac565b6040518060400160405280600b81526020017f41494372656174696f6e730000000000000000000000000000000000000000008152506040518060400160405280600381526020017f41494300000000000000000000000000000000000000000000000000000000008152508160009081620000b4919062000563565b508060019081620000c6919062000563565b505050620000e9620000dd6200013960201b60201c565b6200014160201b60201c565b80600a60006101000a81548173ffffffffffffffffffffffffffffffffffffffff021916908373ffffffffffffffffffffffffffffffffffffffff1602179055508160098190555050506200064a565b600033905090565b6000600760009054906101000a900473ffffffffffffffffffffffffffffffffffffffff16905081600760006101000a81548173ffffffffffffffffffffffffffffffffffffffff021916908373ffffffffffffffffffffffffffffffffffffffff1602179055508173ffffffffffffffffffffffffffffffffffffffff168173ffffffffffffffffffffffffffffffffffffffff167f8be0079c531659141344cd1fd0a4f28419497f9722a3daafe3b4186f6b6457e060405160405180910390a35050565b600080fd5b6000819050919050565b62000221816200020c565b81146200022d57600080fd5b50565b600081519050620002418162000216565b92915050565b600073ffffffffffffffffffffffffffffffffffffffff82169050919050565b6000620002748262000247565b9050919050565b620002868162000267565b81146200029257600080fd5b50565b600081519050620002a6816200027b565b92915050565b60008060408385031215620002c657620002c562000207565b5b6000620002d68582860162000230565b9250506020620002e98582860162000295565b9150509250929050565b600081519050919050565b7f4e487b7100000000000000000000000000000000000000000000000000000000600052604160045260246000fd5b7f4e487b7100000000000000000000000000000000000000000000000000000000600052602260045260246000fd5b600060028204905060018216806200037557607f821691505b6020821081036200038b576200038a6200032d565b5b50919050565b60008190508160005260206000209050919050565b60006020601f8301049050919050565b600082821b905092915050565b600060088302620003f57fffffffffffffffffffffffffffffffffffffffffffffffffffffffffffffffff82620003b6565b620004018683620003b6565b95508019841693508086168417925050509392505050565b6000819050919050565b6000620004446200043e62000438846200020c565b62000419565b6200020c565b9050919050565b6000819050919050565b620004608362000423565b620004786200046f826200044b565b848454620003c3565b825550505050565b600090565b6200048f62000480565b6200049c81848462000455565b505050565b5b81811015620004c457620004b860008262000485565b600181019050620004a2565b5050565b601f8211156200051357620004dd8162000391565b620004e884620003a6565b81016020851015620004f8578190505b620005106200050785620003a6565b830182620004a1565b50505b505050565b600082821c905092915050565b6000620005386000198460080262000518565b1980831691505092915050565b600062000553838362000525565b9150826002028217905092915050565b6200056e82620002f3565b67ffffffffffffffff8111156200058a5762000589620002fe565b5b6200059682546200035c565b620005a3828285620004c8565b600060209050601f831160018114620005db5760008415620005c6578287015190505b620005d2858262000545565b86555062000642565b601f198416620005eb8662000391565b60005b828110156200061557848901518255600182019150602085019450602081019050620005ee565b8683101562000635578489015162000631601f89168262000525565b8355505b6001600288020188555050505b505050505050565b613284806200065a6000396000f3fe6080604052600436106101095760003560e01c80638da5cb5b11610095578063c87b56dd11610064578063c87b56dd14610367578063d204c45e146103a4578063e985e9c5146103c0578063f2fde38b146103fd578063f51f96dd1461042657610109565b80638da5cb5b146102bf57806395d89b41146102ea578063a22cb46514610315578063b88d4fde1461033e57610109565b806323b872dd116100dc57806323b872dd146101dc57806342842e0e146102055780636352211e1461022e57806370a082311461026b578063715018a6146102a857610109565b806301ffc9a71461010e57806306fdde031461014b578063081812fc14610176578063095ea7b3146101b3575b600080fd5b34801561011a57600080fd5b5061013560048036038101906101309190611f06565b610451565b6040516101429190611f4e565b60405180910390f35b34801561015757600080fd5b50610160610533565b60405161016d9190611ff9565b60405180910390f35b34801561018257600080fd5b5061019d60048036038101906101989190612051565b6105c5565b6040516101aa91906120bf565b60405180910390f35b3480156101bf57600080fd5b506101da60048036038101906101d59190612106565b61060b565b005b3480156101e857600080fd5b5061020360048036038101906101fe9190612146565b610722565b005b34801561021157600080fd5b5061022c60048036038101906102279190612146565b610782565b005b34801561023a57600080fd5b5061025560048036038101906102509190612051565b6107a2565b60405161026291906120bf565b60405180910390f35b34801561027757600080fd5b50610292600480360381019061028d9190612199565b610828565b60405161029f91906121d5565b60405180910390f35b3480156102b457600080fd5b506102bd6108df565b005b3480156102cb57600080fd5b506102d46108f3565b6040516102e191906120bf565b60405180910390f35b3480156102f657600080fd5b506102ff61091d565b60405161030c9190611ff9565b60405180910390f35b34801561032157600080fd5b5061033c6004803603810190610337919061221c565b6109af565b005b34801561034a57600080fd5b5061036560048036038101906103609190612391565b6109c5565b005b34801561037357600080fd5b5061038e60048036038101906103899190612051565b610a27565b60405161039b9190611ff9565b60405180910390f35b6103be60048036038101906103b991906124b5565b610a39565b005b3480156103cc57600080fd5b506103e760048036038101906103e29190612511565b610b40565b6040516103f49190611f4e565b60405180910390f35b34801561040957600080fd5b50610424600480360381019061041f9190612199565b610bd4565b005b34801561043257600080fd5b5061043b610c57565b60405161044891906121d5565b60405180910390f35b60007f80ac58cd000000000000000000000000000000000000000000000000000000007bffffffffffffffffffffffffffffffffffffffffffffffffffffffff1916827bffffffffffffffffffffffffffffffffffffffffffffffffffffffff1916148061051c57507f5b5e139f000000000000000000000000000000000000000000000000000000007bffffffffffffffffffffffffffffffffffffffffffffffffffffffff1916827bffffffffffffffffffffffffffffffffffffffffffffffffffffffff1916145b8061052c575061052b82610c5d565b5b9050919050565b60606000805461054290612580565b80601f016020809104026020016040519081016040528092919081815260200182805461056e90612580565b80156105bb5780601f10610590576101008083540402835291602001916105bb565b820191906000526020600020905b81548152906001019060200180831161059e57829003601f168201915b5050505050905090565b60006105d082610cc7565b6004600083815260200190815260200160002060009054906101000a900473ffffffffffffffffffffffffffffffffffffffff169050919050565b6000610616826107a2565b90508073ffffffffffffffffffffffffffffffffffffffff168373ffffffffffffffffffffffffffffffffffffffff1603610686576040517f08c379a000000000000000000000000000000000000000000000000000000000815260040161067d90612623565b60405180910390fd5b8073ffffffffffffffffffffffffffffffffffffffff166106a5610d12565b73ffffffffffffffffffffffffffffffffffffffff1614806106d457506106d3816106ce610d12565b610b40565b5b610713576040517f08c379a000000000000000000000000000000000000000000000000000000000815260040161070a906126b5565b60405180910390fd5b61071d8383610d1a565b505050565b61073361072d610d12565b82610dd3565b610772576040517f08c379a000000000000000000000000000000000000000000000000000000000815260040161076990612747565b60405180910390fd5b61077d838383610e68565b505050565b61079d838383604051806020016040528060008152506109c5565b505050565b6000806107ae83611161565b9050600073ffffffffffffffffffffffffffffffffffffffff168173ffffffffffffffffffffffffffffffffffffffff160361081f576040517f08c379a0000000000000000000000000000000000000000000000000000000008152600401610816906127b3565b60405180910390fd5b80915050919050565b60008073ffffffffffffffffffffffffffffffffffffffff168273ffffffffffffffffffffffffffffffffffffffff1603610898576040517f08c379a000000000000000000000000000000000000000000000000000000000815260040161088f90612845565b60405180910390fd5b600360008373ffffffffffffffffffffffffffffffffffffffff1673ffffffffffffffffffffffffffffffffffffffff168152602001908152602001600020549050919050565b6108e761119e565b6108f1600061121c565b565b6000600760009054906101000a900473ffffffffffffffffffffffffffffffffffffffff16905090565b60606001805461092c90612580565b80601f016020809104026020016040519081016040528092919081815260200182805461095890612580565b80156109a55780601f1061097a576101008083540402835291602001916109a5565b820191906000526020600020905b81548152906001019060200180831161098857829003601f168201915b5050505050905090565b6109c16109ba610d12565b83836112e2565b5050565b6109d66109d0610d12565b83610dd3565b610a15576040517f08c379a0000000000000000000000000000000000000000000000000000000008152600401610a0c90612747565b60405180910390fd5b610a218484848461144e565b50505050565b6060610a32826114aa565b9050919050565b6009543414610a7d576040517f08c379a0000000000000000000000000000000000000000000000000000000008152600401610a74906128d7565b60405180910390fd5b600080600a60009054906101000a900473ffffffffffffffffffffffffffffffffffffffff1673ffffffffffffffffffffffffffffffffffffffff1634604051610ac690612928565b60006040518083038185875af1925050503d8060008114610b03576040519150601f19603f3d011682016040523d82523d6000602084013e610b08565b606091505b50915091506000610b1960086115bc565b9050610b2560086115ca565b610b2f85826115e0565b610b3981856115fe565b5050505050565b6000600560008473ffffffffffffffffffffffffffffffffffffffff1673ffffffffffffffffffffffffffffffffffffffff16815260200190815260200160002060008373ffffffffffffffffffffffffffffffffffffffff1673ffffffffffffffffffffffffffffffffffffffff16815260200190815260200160002060009054906101000a900460ff16905092915050565b610bdc61119e565b600073ffffffffffffffffffffffffffffffffffffffff168173ffffffffffffffffffffffffffffffffffffffff1603610c4b576040517f08c379a0000000000000000000000000000000000000000000000000000000008152600401610c42906129af565b60405180910390fd5b610c548161121c565b50565b60095481565b60007f01ffc9a7000000000000000000000000000000000000000000000000000000007bffffffffffffffffffffffffffffffffffffffffffffffffffffffff1916827bffffffffffffffffffffffffffffffffffffffffffffffffffffffff1916149050919050565b610cd08161166b565b610d0f576040517f08c379a0000000000000000000000000000000000000000000000000000000008152600401610d06906127b3565b60405180910390fd5b50565b600033905090565b816004600083815260200190815260200160002060006101000a81548173ffffffffffffffffffffffffffffffffffffffff021916908373ffffffffffffffffffffffffffffffffffffffff160217905550808273ffffffffffffffffffffffffffffffffffffffff16610d8d836107a2565b73ffffffffffffffffffffffffffffffffffffffff167f8c5be1e5ebec7d5bd14f71427d1e84f3dd0314c0f7b2291e5b200ac8c7c3b92560405160405180910390a45050565b600080610ddf836107a2565b90508073ffffffffffffffffffffffffffffffffffffffff168473ffffffffffffffffffffffffffffffffffffffff161480610e215750610e208185610b40565b5b80610e5f57508373ffffffffffffffffffffffffffffffffffffffff16610e47846105c5565b73ffffffffffffffffffffffffffffffffffffffff16145b91505092915050565b8273ffffffffffffffffffffffffffffffffffffffff16610e88826107a2565b73ffffffffffffffffffffffffffffffffffffffff1614610ede576040517f08c379a0000000000000000000000000000000000000000000000000000000008152600401610ed590612a41565b60405180910390fd5b600073ffffffffffffffffffffffffffffffffffffffff168273ffffffffffffffffffffffffffffffffffffffff1603610f4d576040517f08c379a0000000000000000000000000000000000000000000000000000000008152600401610f4490612ad3565b60405180910390fd5b610f5a83838360016116ac565b8273ffffffffffffffffffffffffffffffffffffffff16610f7a826107a2565b73ffffffffffffffffffffffffffffffffffffffff1614610fd0576040517f08c379a0000000000000000000000000000000000000000000000000000000008152600401610fc790612a41565b60405180910390fd5b6004600082815260200190815260200160002060006101000a81549073ffffffffffffffffffffffffffffffffffffffff02191690556001600360008573ffffffffffffffffffffffffffffffffffffffff1673ffffffffffffffffffffffffffffffffffffffff168152602001908152602001600020600082825403925050819055506001600360008473ffffffffffffffffffffffffffffffffffffffff1673ffffffffffffffffffffffffffffffffffffffff16815260200190815260200160002060008282540192505081905550816002600083815260200190815260200160002060006101000a81548173ffffffffffffffffffffffffffffffffffffffff021916908373ffffffffffffffffffffffffffffffffffffffff160217905550808273ffffffffffffffffffffffffffffffffffffffff168473ffffffffffffffffffffffffffffffffffffffff167fddf252ad1be2c89b69c2b068fc378daa952ba7f163c4a11628f55a4df523b3ef60405160405180910390a461115c83838360016117d2565b505050565b60006002600083815260200190815260200160002060009054906101000a900473ffffffffffffffffffffffffffffffffffffffff169050919050565b6111a6610d12565b73ffffffffffffffffffffffffffffffffffffffff166111c46108f3565b73ffffffffffffffffffffffffffffffffffffffff161461121a576040517f08c379a000000000000000000000000000000000000000000000000000000000815260040161121190612b3f565b60405180910390fd5b565b6000600760009054906101000a900473ffffffffffffffffffffffffffffffffffffffff16905081600760006101000a81548173ffffffffffffffffffffffffffffffffffffffff021916908373ffffffffffffffffffffffffffffffffffffffff1602179055508173ffffffffffffffffffffffffffffffffffffffff168173ffffffffffffffffffffffffffffffffffffffff167f8be0079c531659141344cd1fd0a4f28419497f9722a3daafe3b4186f6b6457e060405160405180910390a35050565b8173ffffffffffffffffffffffffffffffffffffffff168373ffffffffffffffffffffffffffffffffffffffff1603611350576040517f08c379a000000000000000000000000000000000000000000000000000000000815260040161134790612bab565b60405180910390fd5b80600560008573ffffffffffffffffffffffffffffffffffffffff1673ffffffffffffffffffffffffffffffffffffffff16815260200190815260200160002060008473ffffffffffffffffffffffffffffffffffffffff1673ffffffffffffffffffffffffffffffffffffffff16815260200190815260200160002060006101000a81548160ff0219169083151502179055508173ffffffffffffffffffffffffffffffffffffffff168373ffffffffffffffffffffffffffffffffffffffff167f17307eab39ab6107e8899845ad3d59bd9653f200f220920489ca2b5937696c31836040516114419190611f4e565b60405180910390a3505050565b611459848484610e68565b611465848484846117d8565b6114a4576040517f08c379a000000000000000000000000000000000000000000000000000000000815260040161149b90612c3d565b60405180910390fd5b50505050565b60606114b582610cc7565b60006006600084815260200190815260200160002080546114d590612580565b80601f016020809104026020016040519081016040528092919081815260200182805461150190612580565b801561154e5780601f106115235761010080835404028352916020019161154e565b820191906000526020600020905b81548152906001019060200180831161153157829003601f168201915b50505050509050600061155f61195f565b905060008151036115745781925050506115b7565b6000825111156115a9578082604051602001611591929190612c99565b604051602081830303815290604052925050506115b7565b6115b284611976565b925050505b919050565b600081600001549050919050565b6001816000016000828254019250508190555050565b6115fa8282604051806020016040528060008152506119de565b5050565b6116078261166b565b611646576040517f08c379a000000000000000000000000000000000000000000000000000000000815260040161163d90612d2f565b60405180910390fd5b806006600084815260200190815260200160002090816116669190612efb565b505050565b60008073ffffffffffffffffffffffffffffffffffffffff1661168d83611161565b73ffffffffffffffffffffffffffffffffffffffff1614159050919050565b60018111156117cc57600073ffffffffffffffffffffffffffffffffffffffff168473ffffffffffffffffffffffffffffffffffffffff16146117405780600360008673ffffffffffffffffffffffffffffffffffffffff1673ffffffffffffffffffffffffffffffffffffffff16815260200190815260200160002060008282546117389190612ffc565b925050819055505b600073ffffffffffffffffffffffffffffffffffffffff168373ffffffffffffffffffffffffffffffffffffffff16146117cb5780600360008573ffffffffffffffffffffffffffffffffffffffff1673ffffffffffffffffffffffffffffffffffffffff16815260200190815260200160002060008282546117c39190613030565b925050819055505b5b50505050565b50505050565b60006117f98473ffffffffffffffffffffffffffffffffffffffff16611a39565b15611952578373ffffffffffffffffffffffffffffffffffffffff1663150b7a02611822610d12565b8786866040518563ffffffff1660e01b815260040161184494939291906130b9565b6020604051808303816000875af192505050801561188057506040513d601f19601f8201168201806040525081019061187d919061311a565b60015b611902573d80600081146118b0576040519150601f19603f3d011682016040523d82523d6000602084013e6118b5565b606091505b5060008151036118fa576040517f08c379a00000000000000000000000000000000000000000000000000000000081526004016118f190612c3d565b60405180910390fd5b805181602001fd5b63150b7a0260e01b7bffffffffffffffffffffffffffffffffffffffffffffffffffffffff1916817bffffffffffffffffffffffffffffffffffffffffffffffffffffffff191614915050611957565b600190505b949350505050565b606060405180602001604052806000815250905090565b606061198182610cc7565b600061198b61195f565b905060008151116119ab57604051806020016040528060008152506119d6565b806119b584611a5c565b6040516020016119c6929190612c99565b6040516020818303038152906040525b915050919050565b6119e88383611b2a565b6119f560008484846117d8565b611a34576040517f08c379a0000000000000000000000000000000000000000000000000000000008152600401611a2b90612c3d565b60405180910390fd5b505050565b6000808273ffffffffffffffffffffffffffffffffffffffff163b119050919050565b606060006001611a6b84611d47565b01905060008167ffffffffffffffff811115611a8a57611a89612266565b5b6040519080825280601f01601f191660200182016040528015611abc5781602001600182028036833780820191505090505b509050600082602001820190505b600115611b1f578080600190039150507f3031323334353637383961626364656600000000000000000000000000000000600a86061a8153600a8581611b1357611b12613147565b5b04945060008503611aca575b819350505050919050565b600073ffffffffffffffffffffffffffffffffffffffff168273ffffffffffffffffffffffffffffffffffffffff1603611b99576040517f08c379a0000000000000000000000000000000000000000000000000000000008152600401611b90906131c2565b60405180910390fd5b611ba28161166b565b15611be2576040517f08c379a0000000000000000000000000000000000000000000000000000000008152600401611bd99061322e565b60405180910390fd5b611bf06000838360016116ac565b611bf98161166b565b15611c39576040517f08c379a0000000000000000000000000000000000000000000000000000000008152600401611c309061322e565b60405180910390fd5b6001600360008473ffffffffffffffffffffffffffffffffffffffff1673ffffffffffffffffffffffffffffffffffffffff16815260200190815260200160002060008282540192505081905550816002600083815260200190815260200160002060006101000a81548173ffffffffffffffffffffffffffffffffffffffff021916908373ffffffffffffffffffffffffffffffffffffffff160217905550808273ffffffffffffffffffffffffffffffffffffffff16600073ffffffffffffffffffffffffffffffffffffffff167fddf252ad1be2c89b69c2b068fc378daa952ba7f163c4a11628f55a4df523b3ef60405160405180910390a4611d436000838360016117d2565b5050565b600080600090507a184f03e93ff9f4daa797ed6e38ed64bf6a1f0100000000000000008310611da5577a184f03e93ff9f4daa797ed6e38ed64bf6a1f0100000000000000008381611d9b57611d9a613147565b5b0492506040810190505b6d04ee2d6d415b85acef81000000008310611de2576d04ee2d6d415b85acef81000000008381611dd857611dd7613147565b5b0492506020810190505b662386f26fc100008310611e1157662386f26fc100008381611e0757611e06613147565b5b0492506010810190505b6305f5e1008310611e3a576305f5e1008381611e3057611e2f613147565b5b0492506008810190505b6127108310611e5f576127108381611e5557611e54613147565b5b0492506004810190505b60648310611e825760648381611e7857611e77613147565b5b0492506002810190505b600a8310611e91576001810190505b80915050919050565b6000604051905090565b600080fd5b600080fd5b60007fffffffff0000000000000000000000000000000000000000000000000000000082169050919050565b611ee381611eae565b8114611eee57600080fd5b50565b600081359050611f0081611eda565b92915050565b600060208284031215611f1c57611f1b611ea4565b5b6000611f2a84828501611ef1565b91505092915050565b60008115159050919050565b611f4881611f33565b82525050565b6000602082019050611f636000830184611f3f565b92915050565b600081519050919050565b600082825260208201905092915050565b60005b83811015611fa3578082015181840152602081019050611f88565b60008484015250505050565b6000601f19601f8301169050919050565b6000611fcb82611f69565b611fd58185611f74565b9350611fe5818560208601611f85565b611fee81611faf565b840191505092915050565b600060208201905081810360008301526120138184611fc0565b905092915050565b6000819050919050565b61202e8161201b565b811461203957600080fd5b50565b60008135905061204b81612025565b92915050565b60006020828403121561206757612066611ea4565b5b60006120758482850161203c565b91505092915050565b600073ffffffffffffffffffffffffffffffffffffffff82169050919050565b60006120a98261207e565b9050919050565b6120b98161209e565b82525050565b60006020820190506120d460008301846120b0565b92915050565b6120e38161209e565b81146120ee57600080fd5b50565b600081359050612100816120da565b92915050565b6000806040838503121561211d5761211c611ea4565b5b600061212b858286016120f1565b925050602061213c8582860161203c565b9150509250929050565b60008060006060848603121561215f5761215e611ea4565b5b600061216d868287016120f1565b935050602061217e868287016120f1565b925050604061218f8682870161203c565b9150509250925092565b6000602082840312156121af576121ae611ea4565b5b60006121bd848285016120f1565b91505092915050565b6121cf8161201b565b82525050565b60006020820190506121ea60008301846121c6565b92915050565b6121f981611f33565b811461220457600080fd5b50565b600081359050612216816121f0565b92915050565b6000806040838503121561223357612232611ea4565b5b6000612241858286016120f1565b925050602061225285828601612207565b9150509250929050565b600080fd5b600080fd5b7f4e487b7100000000000000000000000000000000000000000000000000000000600052604160045260246000fd5b61229e82611faf565b810181811067ffffffffffffffff821117156122bd576122bc612266565b5b80604052505050565b60006122d0611e9a565b90506122dc8282612295565b919050565b600067ffffffffffffffff8211156122fc576122fb612266565b5b61230582611faf565b9050602081019050919050565b82818337600083830152505050565b600061233461232f846122e1565b6122c6565b9050828152602081018484840111156123505761234f612261565b5b61235b848285612312565b509392505050565b600082601f8301126123785761237761225c565b5b8135612388848260208601612321565b91505092915050565b600080600080608085870312156123ab576123aa611ea4565b5b60006123b9878288016120f1565b94505060206123ca878288016120f1565b93505060406123db8782880161203c565b925050606085013567ffffffffffffffff8111156123fc576123fb611ea9565b5b61240887828801612363565b91505092959194509250565b600067ffffffffffffffff82111561242f5761242e612266565b5b61243882611faf565b9050602081019050919050565b600061245861245384612414565b6122c6565b90508281526020810184848401111561247457612473612261565b5b61247f848285612312565b509392505050565b600082601f83011261249c5761249b61225c565b5b81356124ac848260208601612445565b91505092915050565b600080604083850312156124cc576124cb611ea4565b5b60006124da858286016120f1565b925050602083013567ffffffffffffffff8111156124fb576124fa611ea9565b5b61250785828601612487565b9150509250929050565b6000806040838503121561252857612527611ea4565b5b6000612536858286016120f1565b9250506020612547858286016120f1565b9150509250929050565b7f4e487b7100000000000000000000000000000000000000000000000000000000600052602260045260246000fd5b6000600282049050600182168061259857607f821691505b6020821081036125ab576125aa612551565b5b50919050565b7f4552433732313a20617070726f76616c20746f2063757272656e74206f776e6560008201527f7200000000000000000000000000000000000000000000000000000000000000602082015250565b600061260d602183611f74565b9150612618826125b1565b604082019050919050565b6000602082019050818103600083015261263c81612600565b9050919050565b7f4552433732313a20617070726f76652063616c6c6572206973206e6f7420746f60008201527f6b656e206f776e6572206f7220617070726f76656420666f7220616c6c000000602082015250565b600061269f603d83611f74565b91506126aa82612643565b604082019050919050565b600060208201905081810360008301526126ce81612692565b9050919050565b7f4552433732313a2063616c6c6572206973206e6f7420746f6b656e206f776e6560008201527f72206f7220617070726f76656400000000000000000000000000000000000000602082015250565b6000612731602d83611f74565b915061273c826126d5565b604082019050919050565b6000602082019050818103600083015261276081612724565b9050919050565b7f4552433732313a20696e76616c696420746f6b656e2049440000000000000000600082015250565b600061279d601883611f74565b91506127a882612767565b602082019050919050565b600060208201905081810360008301526127cc81612790565b9050919050565b7f4552433732313a2061646472657373207a65726f206973206e6f74206120766160008201527f6c6964206f776e65720000000000000000000000000000000000000000000000602082015250565b600061282f602983611f74565b915061283a826127d3565b604082019050919050565b6000602082019050818103600083015261285e81612822565b9050919050565b7f76616c75652073656e74206e6565647320746f206265207468652073616d652060008201527f6173207468652073616c65207072696365000000000000000000000000000000602082015250565b60006128c1603183611f74565b91506128cc82612865565b604082019050919050565b600060208201905081810360008301526128f0816128b4565b9050919050565b600081905092915050565b50565b60006129126000836128f7565b915061291d82612902565b600082019050919050565b600061293382612905565b9150819050919050565b7f4f776e61626c653a206e6577206f776e657220697320746865207a65726f206160008201527f6464726573730000000000000000000000000000000000000000000000000000602082015250565b6000612999602683611f74565b91506129a48261293d565b604082019050919050565b600060208201905081810360008301526129c88161298c565b9050919050565b7f4552433732313a207472616e736665722066726f6d20696e636f72726563742060008201527f6f776e6572000000000000000000000000000000000000000000000000000000602082015250565b6000612a2b602583611f74565b9150612a36826129cf565b604082019050919050565b60006020820190508181036000830152612a5a81612a1e565b9050919050565b7f4552433732313a207472616e7366657220746f20746865207a65726f2061646460008201527f7265737300000000000000000000000000000000000000000000000000000000602082015250565b6000612abd602483611f74565b9150612ac882612a61565b604082019050919050565b60006020820190508181036000830152612aec81612ab0565b9050919050565b7f4f776e61626c653a2063616c6c6572206973206e6f7420746865206f776e6572600082015250565b6000612b29602083611f74565b9150612b3482612af3565b602082019050919050565b60006020820190508181036000830152612b5881612b1c565b9050919050565b7f4552433732313a20617070726f766520746f2063616c6c657200000000000000600082015250565b6000612b95601983611f74565b9150612ba082612b5f565b602082019050919050565b60006020820190508181036000830152612bc481612b88565b9050919050565b7f4552433732313a207472616e7366657220746f206e6f6e20455243373231526560008201527f63656976657220696d706c656d656e7465720000000000000000000000000000602082015250565b6000612c27603283611f74565b9150612c3282612bcb565b604082019050919050565b60006020820190508181036000830152612c5681612c1a565b9050919050565b600081905092915050565b6000612c7382611f69565b612c7d8185612c5d565b9350612c8d818560208601611f85565b80840191505092915050565b6000612ca58285612c68565b9150612cb18284612c68565b91508190509392505050565b7f45524337323155524953746f726167653a2055524920736574206f66206e6f6e60008201527f6578697374656e7420746f6b656e000000000000000000000000000000000000602082015250565b6000612d19602e83611f74565b9150612d2482612cbd565b604082019050919050565b60006020820190508181036000830152612d4881612d0c565b9050919050565b60008190508160005260206000209050919050565b60006020601f8301049050919050565b600082821b905092915050565b600060088302612db17fffffffffffffffffffffffffffffffffffffffffffffffffffffffffffffffff82612d74565b612dbb8683612d74565b95508019841693508086168417925050509392505050565b6000819050919050565b6000612df8612df3612dee8461201b565b612dd3565b61201b565b9050919050565b6000819050919050565b612e1283612ddd565b612e26612e1e82612dff565b848454612d81565b825550505050565b600090565b612e3b612e2e565b612e46818484612e09565b505050565b5b81811015612e6a57612e5f600082612e33565b600181019050612e4c565b5050565b601f821115612eaf57612e8081612d4f565b612e8984612d64565b81016020851015612e98578190505b612eac612ea485612d64565b830182612e4b565b50505b505050565b600082821c905092915050565b6000612ed260001984600802612eb4565b1980831691505092915050565b6000612eeb8383612ec1565b9150826002028217905092915050565b612f0482611f69565b67ffffffffffffffff811115612f1d57612f1c612266565b5b612f278254612580565b612f32828285612e6e565b600060209050601f831160018114612f655760008415612f53578287015190505b612f5d8582612edf565b865550612fc5565b601f198416612f7386612d4f565b60005b82811015612f9b57848901518255600182019150602085019450602081019050612f76565b86831015612fb85784890151612fb4601f891682612ec1565b8355505b6001600288020188555050505b505050505050565b7f4e487b7100000000000000000000000000000000000000000000000000000000600052601160045260246000fd5b60006130078261201b565b91506130128361201b565b925082820390508181111561302a57613029612fcd565b5b92915050565b600061303b8261201b565b91506130468361201b565b925082820190508082111561305e5761305d612fcd565b5b92915050565b600081519050919050565b600082825260208201905092915050565b600061308b82613064565b613095818561306f565b93506130a5818560208601611f85565b6130ae81611faf565b840191505092915050565b60006080820190506130ce60008301876120b0565b6130db60208301866120b0565b6130e860408301856121c6565b81810360608301526130fa8184613080565b905095945050505050565b60008151905061311481611eda565b92915050565b6000602082840312156131305761312f611ea4565b5b600061313e84828501613105565b91505092915050565b7f4e487b7100000000000000000000000000000000000000000000000000000000600052601260045260246000fd5b7f4552433732313a206d696e7420746f20746865207a65726f2061646472657373600082015250565b60006131ac602083611f74565b91506131b782613176565b602082019050919050565b600060208201905081810360008301526131db8161319f565b9050919050565b7f4552433732313a20746f6b656e20616c7265616479206d696e74656400000000600082015250565b6000613218601c83611f74565b9150613223826131e2565b602082019050919050565b600060208201905081810360008301526132478161320b565b905091905056fea264697066735822122016a4225aa058c0c09cf1fa53302a9e693b76d61e4b4288e38c032085009ef20c64736f6c63430008120033",
  "linkReferences": {},
  "deployedLinkReferences": {}
}