{
  "_format": "hh-sol-artifact-1",
  "contractName": "AiMons",
  "sourceName": "contracts/AiMons.sol",
  "abi": [
    {
      "inputs": [
        {
          "internalType": "uint256",
          "name": "_salePrice",
          "type": "uint256"
        },
        {
          "internalType": "address",
          "name": "_beneficiary",
          "type": "address"
        }
      ],
      "stateMutability": "nonpayable",
      "type": "constructor"
    },
    {
      "anonymous": false,
      "inputs": [
        {
          "indexed": true,
          "internalType": "address",
          "name": "owner",
          "type": "address"
        },
        {
          "indexed": true,
          "internalType": "address",
          "name": "approved",
          "type": "address"
        },
        {
          "indexed": true,
          "internalType": "uint256",
          "name": "tokenId",
          "type": "uint256"
        }
      ],
      "name": "Approval",
      "type": "event"
    },
    {
      "anonymous": false,
      "inputs": [
        {
          "indexed": true,
          "internalType": "address",
          "name": "owner",
          "type": "address"
        },
        {
          "indexed": true,
          "internalType": "address",
          "name": "operator",
          "type": "address"
        },
        {
          "indexed": false,
          "internalType": "bool",
          "name": "approved",
          "type": "bool"
        }
      ],
      "name": "ApprovalForAll",
      "type": "event"
    },
    {
      "anonymous": false,
      "inputs": [
        {
          "indexed": true,
          "internalType": "address",
          "name": "previousOwner",
          "type": "address"
        },
        {
          "indexed": true,
          "internalType": "address",
          "name": "newOwner",
          "type": "address"
        }
      ],
      "name": "OwnershipTransferred",
      "type": "event"
    },
    {
      "anonymous": false,
      "inputs": [
        {
          "indexed": true,
          "internalType": "address",
          "name": "from",
          "type": "address"
        },
        {
          "indexed": true,
          "internalType": "address",
          "name": "to",
          "type": "address"
        },
        {
          "indexed": true,
          "internalType": "uint256",
          "name": "tokenId",
          "type": "uint256"
        }
      ],
      "name": "Transfer",
      "type": "event"
    },
    {
      "inputs": [
        {
          "internalType": "address",
          "name": "to",
          "type": "address"
        },
        {
          "internalType": "uint256",
          "name": "tokenId",
          "type": "uint256"
        }
      ],
      "name": "approve",
      "outputs": [],
      "stateMutability": "nonpayable",
      "type": "function"
    },
    {
      "inputs": [
        {
          "internalType": "address",
          "name": "owner",
          "type": "address"
        }
      ],
      "name": "balanceOf",
      "outputs": [
        {
          "internalType": "uint256",
          "name": "",
          "type": "uint256"
        }
      ],
      "stateMutability": "view",
      "type": "function"
    },
    {
      "inputs": [
        {
          "internalType": "uint256",
          "name": "tokenId",
          "type": "uint256"
        }
      ],
      "name": "getApproved",
      "outputs": [
        {
          "internalType": "address",
          "name": "",
          "type": "address"
        }
      ],
      "stateMutability": "view",
      "type": "function"
    },
    {
      "inputs": [
        {
          "internalType": "address",
          "name": "owner",
          "type": "address"
        },
        {
          "internalType": "address",
          "name": "operator",
          "type": "address"
        }
      ],
      "name": "isApprovedForAll",
      "outputs": [
        {
          "internalType": "bool",
          "name": "",
          "type": "bool"
        }
      ],
      "stateMutability": "view",
      "type": "function"
    },
    {
      "inputs": [],
      "name": "name",
      "outputs": [
        {
          "internalType": "string",
          "name": "",
          "type": "string"
        }
      ],
      "stateMutability": "view",
      "type": "function"
    },
    {
      "inputs": [],
      "name": "owner",
      "outputs": [
        {
          "internalType": "address",
          "name": "",
          "type": "address"
        }
      ],
      "stateMutability": "view",
      "type": "function"
    },
    {
      "inputs": [
        {
          "internalType": "uint256",
          "name": "tokenId",
          "type": "uint256"
        }
      ],
      "name": "ownerOf",
      "outputs": [
        {
          "internalType": "address",
          "name": "",
          "type": "address"
        }
      ],
      "stateMutability": "view",
      "type": "function"
    },
    {
      "inputs": [],
      "name": "renounceOwnership",
      "outputs": [],
      "stateMutability": "nonpayable",
      "type": "function"
    },
    {
      "inputs": [
        {
          "internalType": "uint256",
          "name": "_tokenId",
          "type": "uint256"
        },
        {
          "internalType": "uint256",
          "name": "_salePrice",
          "type": "uint256"
        }
      ],
      "name": "royaltyInfo",
      "outputs": [
        {
          "internalType": "address",
          "name": "",
          "type": "address"
        },
        {
          "internalType": "uint256",
          "name": "",
          "type": "uint256"
        }
      ],
      "stateMutability": "view",
      "type": "function"
    },
    {
      "inputs": [
        {
          "internalType": "address",
          "name": "to",
          "type": "address"
        },
        {
          "internalType": "string",
          "name": "uri",
          "type": "string"
        }
      ],
      "name": "safeMint",
      "outputs": [],
      "stateMutability": "payable",
      "type": "function"
    },
    {
      "inputs": [
        {
          "internalType": "address",
          "name": "from",
          "type": "address"
        },
        {
          "internalType": "address",
          "name": "to",
          "type": "address"
        },
        {
          "internalType": "uint256",
          "name": "tokenId",
          "type": "uint256"
        }
      ],
      "name": "safeTransferFrom",
      "outputs": [],
      "stateMutability": "nonpayable",
      "type": "function"
    },
    {
      "inputs": [
        {
          "internalType": "address",
          "name": "from",
          "type": "address"
        },
        {
          "internalType": "address",
          "name": "to",
          "type": "address"
        },
        {
          "internalType": "uint256",
          "name": "tokenId",
          "type": "uint256"
        },
        {
          "internalType": "bytes",
          "name": "data",
          "type": "bytes"
        }
      ],
      "name": "safeTransferFrom",
      "outputs": [],
      "stateMutability": "nonpayable",
      "type": "function"
    },
    {
      "inputs": [],
      "name": "salePrice",
      "outputs": [
        {
          "internalType": "uint256",
          "name": "",
          "type": "uint256"
        }
      ],
      "stateMutability": "view",
      "type": "function"
    },
    {
      "inputs": [
        {
          "internalType": "address",
          "name": "operator",
          "type": "address"
        },
        {
          "internalType": "bool",
          "name": "approved",
          "type": "bool"
        }
      ],
      "name": "setApprovalForAll",
      "outputs": [],
      "stateMutability": "nonpayable",
      "type": "function"
    },
    {
      "inputs": [
        {
          "internalType": "bytes4",
          "name": "interfaceId",
          "type": "bytes4"
        }
      ],
      "name": "supportsInterface",
      "outputs": [
        {
          "internalType": "bool",
          "name": "",
          "type": "bool"
        }
      ],
      "stateMutability": "view",
      "type": "function"
    },
    {
      "inputs": [],
      "name": "symbol",
      "outputs": [
        {
          "internalType": "string",
          "name": "",
          "type": "string"
        }
      ],
      "stateMutability": "view",
      "type": "function"
    },
    {
      "inputs": [
        {
          "internalType": "uint256",
          "name": "tokenId",
          "type": "uint256"
        }
      ],
      "name": "tokenURI",
      "outputs": [
        {
          "internalType": "string",
          "name": "",
          "type": "string"
        }
      ],
      "stateMutability": "view",
      "type": "function"
    },
    {
      "inputs": [
        {
          "internalType": "address",
          "name": "from",
          "type": "address"
        },
        {
          "internalType": "address",
          "name": "to",
          "type": "address"
        },
        {
          "internalType": "uint256",
          "name": "tokenId",
          "type": "uint256"
        }
      ],
      "name": "transferFrom",
      "outputs": [],
      "stateMutability": "nonpayable",
      "type": "function"
    },
    {
      "inputs": [
        {
          "internalType": "address",
          "name": "newOwner",
          "type": "address"
        }
      ],
      "name": "transferOwnership",
      "outputs": [],
      "stateMutability": "nonpayable",
      "type": "function"
    }
  ],
  "bytecode": "0x60806040523480156200001157600080fd5b5060405162003f9238038062003f9283398181016040528101906200003791906200048e565b6040518060400160405280600b81526020017f41494372656174696f6e730000000000000000000000000000000000000000008152506040518060400160405280600381526020017f41494300000000000000000000000000000000000000000000000000000000008152508160029081620000b4919062000745565b508060039081620000c6919062000745565b505050620000e9620000dd6200016f60201b60201c565b6200017760201b60201c565b80600c60006101000a81548173ffffffffffffffffffffffffffffffffffffffff021916908373ffffffffffffffffffffffffffffffffffffffff16021790555081600b8190555062000167600c60009054906101000a900473ffffffffffffffffffffffffffffffffffffffff166103e86200023d60201b60201c565b505062000947565b600033905090565b6000600960009054906101000a900473ffffffffffffffffffffffffffffffffffffffff16905081600960006101000a81548173ffffffffffffffffffffffffffffffffffffffff021916908373ffffffffffffffffffffffffffffffffffffffff1602179055508173ffffffffffffffffffffffffffffffffffffffff168173ffffffffffffffffffffffffffffffffffffffff167f8be0079c531659141344cd1fd0a4f28419497f9722a3daafe3b4186f6b6457e060405160405180910390a35050565b6200024d620003df60201b60201c565b6bffffffffffffffffffffffff16816bffffffffffffffffffffffff161115620002ae576040517f08c379a0000000000000000000000000000000000000000000000000000000008152600401620002a590620008b3565b60405180910390fd5b600073ffffffffffffffffffffffffffffffffffffffff168273ffffffffffffffffffffffffffffffffffffffff160362000320576040517f08c379a0000000000000000000000000000000000000000000000000000000008152600401620003179062000925565b60405180910390fd5b60405180604001604052808373ffffffffffffffffffffffffffffffffffffffff168152602001826bffffffffffffffffffffffff168152506000808201518160000160006101000a81548173ffffffffffffffffffffffffffffffffffffffff021916908373ffffffffffffffffffffffffffffffffffffffff16021790555060208201518160000160146101000a8154816bffffffffffffffffffffffff02191690836bffffffffffffffffffffffff1602179055509050505050565b6000612710905090565b600080fd5b6000819050919050565b6200040381620003ee565b81146200040f57600080fd5b50565b6000815190506200042381620003f8565b92915050565b600073ffffffffffffffffffffffffffffffffffffffff82169050919050565b6000620004568262000429565b9050919050565b620004688162000449565b81146200047457600080fd5b50565b60008151905062000488816200045d565b92915050565b60008060408385031215620004a857620004a7620003e9565b5b6000620004b88582860162000412565b9250506020620004cb8582860162000477565b9150509250929050565b600081519050919050565b7f4e487b7100000000000000000000000000000000000000000000000000000000600052604160045260246000fd5b7f4e487b7100000000000000000000000000000000000000000000000000000000600052602260045260246000fd5b600060028204905060018216806200055757607f821691505b6020821081036200056d576200056c6200050f565b5b50919050565b60008190508160005260206000209050919050565b60006020601f8301049050919050565b600082821b905092915050565b600060088302620005d77fffffffffffffffffffffffffffffffffffffffffffffffffffffffffffffffff8262000598565b620005e3868362000598565b95508019841693508086168417925050509392505050565b6000819050919050565b600062000626620006206200061a84620003ee565b620005fb565b620003ee565b9050919050565b6000819050919050565b620006428362000605565b6200065a62000651826200062d565b848454620005a5565b825550505050565b600090565b6200067162000662565b6200067e81848462000637565b505050565b5b81811015620006a6576200069a60008262000667565b60018101905062000684565b5050565b601f821115620006f557620006bf8162000573565b620006ca8462000588565b81016020851015620006da578190505b620006f2620006e98562000588565b83018262000683565b50505b505050565b600082821c905092915050565b60006200071a60001984600802620006fa565b1980831691505092915050565b600062000735838362000707565b9150826002028217905092915050565b6200075082620004d5565b67ffffffffffffffff8111156200076c576200076b620004e0565b5b6200077882546200053e565b62000785828285620006aa565b600060209050601f831160018114620007bd5760008415620007a8578287015190505b620007b4858262000727565b86555062000824565b601f198416620007cd8662000573565b60005b82811015620007f757848901518255600182019150602085019450602081019050620007d0565b8683101562000817578489015162000813601f89168262000707565b8355505b6001600288020188555050505b505050505050565b600082825260208201905092915050565b7f455243323938313a20726f79616c7479206665652077696c6c2065786365656460008201527f2073616c65507269636500000000000000000000000000000000000000000000602082015250565b60006200089b602a836200082c565b9150620008a8826200083d565b604082019050919050565b60006020820190508181036000830152620008ce816200088c565b9050919050565b7f455243323938313a20696e76616c696420726563656976657200000000000000600082015250565b60006200090d6019836200082c565b91506200091a82620008d5565b602082019050919050565b600060208201905081810360008301526200094081620008fe565b9050919050565b61363b80620009576000396000f3fe6080604052600436106101145760003560e01c8063715018a6116100a0578063c87b56dd11610064578063c87b56dd146103b0578063d204c45e146103ed578063e985e9c514610409578063f2fde38b14610446578063f51f96dd1461046f57610114565b8063715018a6146102f15780638da5cb5b1461030857806395d89b4114610333578063a22cb4651461035e578063b88d4fde1461038757610114565b806323b872dd116100e757806323b872dd146101e75780632a55205a1461021057806342842e0e1461024e5780636352211e1461027757806370a08231146102b457610114565b806301ffc9a71461011957806306fdde0314610156578063081812fc14610181578063095ea7b3146101be575b600080fd5b34801561012557600080fd5b50610140600480360381019061013b91906121e1565b61049a565b60405161014d9190612229565b60405180910390f35b34801561016257600080fd5b5061016b6104ac565b60405161017891906122d4565b60405180910390f35b34801561018d57600080fd5b506101a860048036038101906101a3919061232c565b61053e565b6040516101b5919061239a565b60405180910390f35b3480156101ca57600080fd5b506101e560048036038101906101e091906123e1565b610584565b005b3480156101f357600080fd5b5061020e60048036038101906102099190612421565b61069b565b005b34801561021c57600080fd5b5061023760048036038101906102329190612474565b6106fb565b6040516102459291906124c3565b60405180910390f35b34801561025a57600080fd5b5061027560048036038101906102709190612421565b6108e5565b005b34801561028357600080fd5b5061029e6004803603810190610299919061232c565b610905565b6040516102ab919061239a565b60405180910390f35b3480156102c057600080fd5b506102db60048036038101906102d691906124ec565b61098b565b6040516102e89190612519565b60405180910390f35b3480156102fd57600080fd5b50610306610a42565b005b34801561031457600080fd5b5061031d610a56565b60405161032a919061239a565b60405180910390f35b34801561033f57600080fd5b50610348610a80565b60405161035591906122d4565b60405180910390f35b34801561036a57600080fd5b5061038560048036038101906103809190612560565b610b12565b005b34801561039357600080fd5b506103ae60048036038101906103a991906126d5565b610b28565b005b3480156103bc57600080fd5b506103d760048036038101906103d2919061232c565b610b8a565b6040516103e491906122d4565b60405180910390f35b610407600480360381019061040291906127f9565b610b9c565b005b34801561041557600080fd5b50610430600480360381019061042b9190612855565b610ca3565b60405161043d9190612229565b60405180910390f35b34801561045257600080fd5b5061046d600480360381019061046891906124ec565b610d37565b005b34801561047b57600080fd5b50610484610dba565b6040516104919190612519565b60405180910390f35b60006104a582610dc0565b9050919050565b6060600280546104bb906128c4565b80601f01602080910402602001604051908101604052809291908181526020018280546104e7906128c4565b80156105345780601f1061050957610100808354040283529160200191610534565b820191906000526020600020905b81548152906001019060200180831161051757829003601f168201915b5050505050905090565b600061054982610dd2565b6006600083815260200190815260200160002060009054906101000a900473ffffffffffffffffffffffffffffffffffffffff169050919050565b600061058f82610905565b90508073ffffffffffffffffffffffffffffffffffffffff168373ffffffffffffffffffffffffffffffffffffffff16036105ff576040517f08c379a00000000000000000000000000000000000000000000000000000000081526004016105f690612967565b60405180910390fd5b8073ffffffffffffffffffffffffffffffffffffffff1661061e610e1d565b73ffffffffffffffffffffffffffffffffffffffff16148061064d575061064c81610647610e1d565b610ca3565b5b61068c576040517f08c379a0000000000000000000000000000000000000000000000000000000008152600401610683906129f9565b60405180910390fd5b6106968383610e25565b505050565b6106ac6106a6610e1d565b82610ede565b6106eb576040517f08c379a00000000000000000000000000000000000000000000000000000000081526004016106e290612a8b565b60405180910390fd5b6106f6838383610f73565b505050565b6000806000600160008681526020019081526020016000206040518060400160405290816000820160009054906101000a900473ffffffffffffffffffffffffffffffffffffffff1673ffffffffffffffffffffffffffffffffffffffff1673ffffffffffffffffffffffffffffffffffffffff1681526020016000820160149054906101000a90046bffffffffffffffffffffffff166bffffffffffffffffffffffff166bffffffffffffffffffffffff16815250509050600073ffffffffffffffffffffffffffffffffffffffff16816000015173ffffffffffffffffffffffffffffffffffffffff16036108905760006040518060400160405290816000820160009054906101000a900473ffffffffffffffffffffffffffffffffffffffff1673ffffffffffffffffffffffffffffffffffffffff1673ffffffffffffffffffffffffffffffffffffffff1681526020016000820160149054906101000a90046bffffffffffffffffffffffff166bffffffffffffffffffffffff166bffffffffffffffffffffffff168152505090505b600061089a61126c565b6bffffffffffffffffffffffff1682602001516bffffffffffffffffffffffff16866108c69190612ada565b6108d09190612b4b565b90508160000151819350935050509250929050565b61090083838360405180602001604052806000815250610b28565b505050565b60008061091183611276565b9050600073ffffffffffffffffffffffffffffffffffffffff168173ffffffffffffffffffffffffffffffffffffffff1603610982576040517f08c379a000000000000000000000000000000000000000000000000000000000815260040161097990612bc8565b60405180910390fd5b80915050919050565b60008073ffffffffffffffffffffffffffffffffffffffff168273ffffffffffffffffffffffffffffffffffffffff16036109fb576040517f08c379a00000000000000000000000000000000000000000000000000000000081526004016109f290612c5a565b60405180910390fd5b600560008373ffffffffffffffffffffffffffffffffffffffff1673ffffffffffffffffffffffffffffffffffffffff168152602001908152602001600020549050919050565b610a4a6112b3565b610a546000611331565b565b6000600960009054906101000a900473ffffffffffffffffffffffffffffffffffffffff16905090565b606060038054610a8f906128c4565b80601f0160208091040260200160405190810160405280929190818152602001828054610abb906128c4565b8015610b085780601f10610add57610100808354040283529160200191610b08565b820191906000526020600020905b815481529060010190602001808311610aeb57829003601f168201915b5050505050905090565b610b24610b1d610e1d565b83836113f7565b5050565b610b39610b33610e1d565b83610ede565b610b78576040517f08c379a0000000000000000000000000000000000000000000000000000000008152600401610b6f90612a8b565b60405180910390fd5b610b8484848484611563565b50505050565b6060610b95826115bf565b9050919050565b600b543414610be0576040517f08c379a0000000000000000000000000000000000000000000000000000000008152600401610bd790612cec565b60405180910390fd5b600080600c60009054906101000a900473ffffffffffffffffffffffffffffffffffffffff1673ffffffffffffffffffffffffffffffffffffffff1634604051610c2990612d3d565b60006040518083038185875af1925050503d8060008114610c66576040519150601f19603f3d011682016040523d82523d6000602084013e610c6b565b606091505b50915091506000610c7c600a6116d1565b9050610c88600a6116df565b610c9285826116f5565b610c9c8185611713565b5050505050565b6000600760008473ffffffffffffffffffffffffffffffffffffffff1673ffffffffffffffffffffffffffffffffffffffff16815260200190815260200160002060008373ffffffffffffffffffffffffffffffffffffffff1673ffffffffffffffffffffffffffffffffffffffff16815260200190815260200160002060009054906101000a900460ff16905092915050565b610d3f6112b3565b600073ffffffffffffffffffffffffffffffffffffffff168173ffffffffffffffffffffffffffffffffffffffff1603610dae576040517f08c379a0000000000000000000000000000000000000000000000000000000008152600401610da590612dc4565b60405180910390fd5b610db781611331565b50565b600b5481565b6000610dcb82611780565b9050919050565b610ddb81611862565b610e1a576040517f08c379a0000000000000000000000000000000000000000000000000000000008152600401610e1190612bc8565b60405180910390fd5b50565b600033905090565b816006600083815260200190815260200160002060006101000a81548173ffffffffffffffffffffffffffffffffffffffff021916908373ffffffffffffffffffffffffffffffffffffffff160217905550808273ffffffffffffffffffffffffffffffffffffffff16610e9883610905565b73ffffffffffffffffffffffffffffffffffffffff167f8c5be1e5ebec7d5bd14f71427d1e84f3dd0314c0f7b2291e5b200ac8c7c3b92560405160405180910390a45050565b600080610eea83610905565b90508073ffffffffffffffffffffffffffffffffffffffff168473ffffffffffffffffffffffffffffffffffffffff161480610f2c5750610f2b8185610ca3565b5b80610f6a57508373ffffffffffffffffffffffffffffffffffffffff16610f528461053e565b73ffffffffffffffffffffffffffffffffffffffff16145b91505092915050565b8273ffffffffffffffffffffffffffffffffffffffff16610f9382610905565b73ffffffffffffffffffffffffffffffffffffffff1614610fe9576040517f08c379a0000000000000000000000000000000000000000000000000000000008152600401610fe090612e56565b60405180910390fd5b600073ffffffffffffffffffffffffffffffffffffffff168273ffffffffffffffffffffffffffffffffffffffff1603611058576040517f08c379a000000000000000000000000000000000000000000000000000000000815260040161104f90612ee8565b60405180910390fd5b61106583838360016118a3565b8273ffffffffffffffffffffffffffffffffffffffff1661108582610905565b73ffffffffffffffffffffffffffffffffffffffff16146110db576040517f08c379a00000000000000000000000000000000000000000000000000000000081526004016110d290612e56565b60405180910390fd5b6006600082815260200190815260200160002060006101000a81549073ffffffffffffffffffffffffffffffffffffffff02191690556001600560008573ffffffffffffffffffffffffffffffffffffffff1673ffffffffffffffffffffffffffffffffffffffff168152602001908152602001600020600082825403925050819055506001600560008473ffffffffffffffffffffffffffffffffffffffff1673ffffffffffffffffffffffffffffffffffffffff16815260200190815260200160002060008282540192505081905550816004600083815260200190815260200160002060006101000a81548173ffffffffffffffffffffffffffffffffffffffff021916908373ffffffffffffffffffffffffffffffffffffffff160217905550808273ffffffffffffffffffffffffffffffffffffffff168473ffffffffffffffffffffffffffffffffffffffff167fddf252ad1be2c89b69c2b068fc378daa952ba7f163c4a11628f55a4df523b3ef60405160405180910390a461126783838360016119c9565b505050565b6000612710905090565b60006004600083815260200190815260200160002060009054906101000a900473ffffffffffffffffffffffffffffffffffffffff169050919050565b6112bb610e1d565b73ffffffffffffffffffffffffffffffffffffffff166112d9610a56565b73ffffffffffffffffffffffffffffffffffffffff161461132f576040517f08c379a000000000000000000000000000000000000000000000000000000000815260040161132690612f54565b60405180910390fd5b565b6000600960009054906101000a900473ffffffffffffffffffffffffffffffffffffffff16905081600960006101000a81548173ffffffffffffffffffffffffffffffffffffffff021916908373ffffffffffffffffffffffffffffffffffffffff1602179055508173ffffffffffffffffffffffffffffffffffffffff168173ffffffffffffffffffffffffffffffffffffffff167f8be0079c531659141344cd1fd0a4f28419497f9722a3daafe3b4186f6b6457e060405160405180910390a35050565b8173ffffffffffffffffffffffffffffffffffffffff168373ffffffffffffffffffffffffffffffffffffffff1603611465576040517f08c379a000000000000000000000000000000000000000000000000000000000815260040161145c90612fc0565b60405180910390fd5b80600760008573ffffffffffffffffffffffffffffffffffffffff1673ffffffffffffffffffffffffffffffffffffffff16815260200190815260200160002060008473ffffffffffffffffffffffffffffffffffffffff1673ffffffffffffffffffffffffffffffffffffffff16815260200190815260200160002060006101000a81548160ff0219169083151502179055508173ffffffffffffffffffffffffffffffffffffffff168373ffffffffffffffffffffffffffffffffffffffff167f17307eab39ab6107e8899845ad3d59bd9653f200f220920489ca2b5937696c31836040516115569190612229565b60405180910390a3505050565b61156e848484610f73565b61157a848484846119cf565b6115b9576040517f08c379a00000000000000000000000000000000000000000000000000000000081526004016115b090613052565b60405180910390fd5b50505050565b60606115ca82610dd2565b60006008600084815260200190815260200160002080546115ea906128c4565b80601f0160208091040260200160405190810160405280929190818152602001828054611616906128c4565b80156116635780601f1061163857610100808354040283529160200191611663565b820191906000526020600020905b81548152906001019060200180831161164657829003601f168201915b505050505090506000611674611b56565b905060008151036116895781925050506116cc565b6000825111156116be5780826040516020016116a69291906130ae565b604051602081830303815290604052925050506116cc565b6116c784611b6d565b925050505b919050565b600081600001549050919050565b6001816000016000828254019250508190555050565b61170f828260405180602001604052806000815250611bd5565b5050565b61171c82611862565b61175b576040517f08c379a000000000000000000000000000000000000000000000000000000000815260040161175290613144565b60405180910390fd5b8060086000848152602001908152602001600020908161177b9190613310565b505050565b60007f80ac58cd000000000000000000000000000000000000000000000000000000007bffffffffffffffffffffffffffffffffffffffffffffffffffffffff1916827bffffffffffffffffffffffffffffffffffffffffffffffffffffffff1916148061184b57507f5b5e139f000000000000000000000000000000000000000000000000000000007bffffffffffffffffffffffffffffffffffffffffffffffffffffffff1916827bffffffffffffffffffffffffffffffffffffffffffffffffffffffff1916145b8061185b575061185a82611c30565b5b9050919050565b60008073ffffffffffffffffffffffffffffffffffffffff1661188483611276565b73ffffffffffffffffffffffffffffffffffffffff1614159050919050565b60018111156119c357600073ffffffffffffffffffffffffffffffffffffffff168473ffffffffffffffffffffffffffffffffffffffff16146119375780600560008673ffffffffffffffffffffffffffffffffffffffff1673ffffffffffffffffffffffffffffffffffffffff168152602001908152602001600020600082825461192f91906133e2565b925050819055505b600073ffffffffffffffffffffffffffffffffffffffff168373ffffffffffffffffffffffffffffffffffffffff16146119c25780600560008573ffffffffffffffffffffffffffffffffffffffff1673ffffffffffffffffffffffffffffffffffffffff16815260200190815260200160002060008282546119ba9190613416565b925050819055505b5b50505050565b50505050565b60006119f08473ffffffffffffffffffffffffffffffffffffffff16611caa565b15611b49578373ffffffffffffffffffffffffffffffffffffffff1663150b7a02611a19610e1d565b8786866040518563ffffffff1660e01b8152600401611a3b949392919061349f565b6020604051808303816000875af1925050508015611a7757506040513d601f19601f82011682018060405250810190611a749190613500565b60015b611af9573d8060008114611aa7576040519150601f19603f3d011682016040523d82523d6000602084013e611aac565b606091505b506000815103611af1576040517f08c379a0000000000000000000000000000000000000000000000000000000008152600401611ae890613052565b60405180910390fd5b805181602001fd5b63150b7a0260e01b7bffffffffffffffffffffffffffffffffffffffffffffffffffffffff1916817bffffffffffffffffffffffffffffffffffffffffffffffffffffffff191614915050611b4e565b600190505b949350505050565b606060405180602001604052806000815250905090565b6060611b7882610dd2565b6000611b82611b56565b90506000815111611ba25760405180602001604052806000815250611bcd565b80611bac84611ccd565b604051602001611bbd9291906130ae565b6040516020818303038152906040525b915050919050565b611bdf8383611d9b565b611bec60008484846119cf565b611c2b576040517f08c379a0000000000000000000000000000000000000000000000000000000008152600401611c2290613052565b60405180910390fd5b505050565b60007f2a55205a000000000000000000000000000000000000000000000000000000007bffffffffffffffffffffffffffffffffffffffffffffffffffffffff1916827bffffffffffffffffffffffffffffffffffffffffffffffffffffffff19161480611ca35750611ca282611fb8565b5b9050919050565b6000808273ffffffffffffffffffffffffffffffffffffffff163b119050919050565b606060006001611cdc84612022565b01905060008167ffffffffffffffff811115611cfb57611cfa6125aa565b5b6040519080825280601f01601f191660200182016040528015611d2d5781602001600182028036833780820191505090505b509050600082602001820190505b600115611d90578080600190039150507f3031323334353637383961626364656600000000000000000000000000000000600a86061a8153600a8581611d8457611d83612b1c565b5b04945060008503611d3b575b819350505050919050565b600073ffffffffffffffffffffffffffffffffffffffff168273ffffffffffffffffffffffffffffffffffffffff1603611e0a576040517f08c379a0000000000000000000000000000000000000000000000000000000008152600401611e0190613579565b60405180910390fd5b611e1381611862565b15611e53576040517f08c379a0000000000000000000000000000000000000000000000000000000008152600401611e4a906135e5565b60405180910390fd5b611e616000838360016118a3565b611e6a81611862565b15611eaa576040517f08c379a0000000000000000000000000000000000000000000000000000000008152600401611ea1906135e5565b60405180910390fd5b6001600560008473ffffffffffffffffffffffffffffffffffffffff1673ffffffffffffffffffffffffffffffffffffffff16815260200190815260200160002060008282540192505081905550816004600083815260200190815260200160002060006101000a81548173ffffffffffffffffffffffffffffffffffffffff021916908373ffffffffffffffffffffffffffffffffffffffff160217905550808273ffffffffffffffffffffffffffffffffffffffff16600073ffffffffffffffffffffffffffffffffffffffff167fddf252ad1be2c89b69c2b068fc378daa952ba7f163c4a11628f55a4df523b3ef60405160405180910390a4611fb46000838360016119c9565b5050565b60007f01ffc9a7000000000000000000000000000000000000000000000000000000007bffffffffffffffffffffffffffffffffffffffffffffffffffffffff1916827bffffffffffffffffffffffffffffffffffffffffffffffffffffffff1916149050919050565b600080600090507a184f03e93ff9f4daa797ed6e38ed64bf6a1f0100000000000000008310612080577a184f03e93ff9f4daa797ed6e38ed64bf6a1f010000000000000000838161207657612075612b1c565b5b0492506040810190505b6d04ee2d6d415b85acef810000000083106120bd576d04ee2d6d415b85acef810000000083816120b3576120b2612b1c565b5b0492506020810190505b662386f26fc1000083106120ec57662386f26fc1000083816120e2576120e1612b1c565b5b0492506010810190505b6305f5e1008310612115576305f5e100838161210b5761210a612b1c565b5b0492506008810190505b612710831061213a5761271083816121305761212f612b1c565b5b0492506004810190505b6064831061215d576064838161215357612152612b1c565b5b0492506002810190505b600a831061216c576001810190505b80915050919050565b6000604051905090565b600080fd5b600080fd5b60007fffffffff0000000000000000000000000000000000000000000000000000000082169050919050565b6121be81612189565b81146121c957600080fd5b50565b6000813590506121db816121b5565b92915050565b6000602082840312156121f7576121f661217f565b5b6000612205848285016121cc565b91505092915050565b60008115159050919050565b6122238161220e565b82525050565b600060208201905061223e600083018461221a565b92915050565b600081519050919050565b600082825260208201905092915050565b60005b8381101561227e578082015181840152602081019050612263565b60008484015250505050565b6000601f19601f8301169050919050565b60006122a682612244565b6122b0818561224f565b93506122c0818560208601612260565b6122c98161228a565b840191505092915050565b600060208201905081810360008301526122ee818461229b565b905092915050565b6000819050919050565b612309816122f6565b811461231457600080fd5b50565b60008135905061232681612300565b92915050565b6000602082840312156123425761234161217f565b5b600061235084828501612317565b91505092915050565b600073ffffffffffffffffffffffffffffffffffffffff82169050919050565b600061238482612359565b9050919050565b61239481612379565b82525050565b60006020820190506123af600083018461238b565b92915050565b6123be81612379565b81146123c957600080fd5b50565b6000813590506123db816123b5565b92915050565b600080604083850312156123f8576123f761217f565b5b6000612406858286016123cc565b925050602061241785828601612317565b9150509250929050565b60008060006060848603121561243a5761243961217f565b5b6000612448868287016123cc565b9350506020612459868287016123cc565b925050604061246a86828701612317565b9150509250925092565b6000806040838503121561248b5761248a61217f565b5b600061249985828601612317565b92505060206124aa85828601612317565b9150509250929050565b6124bd816122f6565b82525050565b60006040820190506124d8600083018561238b565b6124e560208301846124b4565b9392505050565b6000602082840312156125025761250161217f565b5b6000612510848285016123cc565b91505092915050565b600060208201905061252e60008301846124b4565b92915050565b61253d8161220e565b811461254857600080fd5b50565b60008135905061255a81612534565b92915050565b600080604083850312156125775761257661217f565b5b6000612585858286016123cc565b92505060206125968582860161254b565b9150509250929050565b600080fd5b600080fd5b7f4e487b7100000000000000000000000000000000000000000000000000000000600052604160045260246000fd5b6125e28261228a565b810181811067ffffffffffffffff82111715612601576126006125aa565b5b80604052505050565b6000612614612175565b905061262082826125d9565b919050565b600067ffffffffffffffff8211156126405761263f6125aa565b5b6126498261228a565b9050602081019050919050565b82818337600083830152505050565b600061267861267384612625565b61260a565b905082815260208101848484011115612694576126936125a5565b5b61269f848285612656565b509392505050565b600082601f8301126126bc576126bb6125a0565b5b81356126cc848260208601612665565b91505092915050565b600080600080608085870312156126ef576126ee61217f565b5b60006126fd878288016123cc565b945050602061270e878288016123cc565b935050604061271f87828801612317565b925050606085013567ffffffffffffffff8111156127405761273f612184565b5b61274c878288016126a7565b91505092959194509250565b600067ffffffffffffffff821115612773576127726125aa565b5b61277c8261228a565b9050602081019050919050565b600061279c61279784612758565b61260a565b9050828152602081018484840111156127b8576127b76125a5565b5b6127c3848285612656565b509392505050565b600082601f8301126127e0576127df6125a0565b5b81356127f0848260208601612789565b91505092915050565b600080604083850312156128105761280f61217f565b5b600061281e858286016123cc565b925050602083013567ffffffffffffffff81111561283f5761283e612184565b5b61284b858286016127cb565b9150509250929050565b6000806040838503121561286c5761286b61217f565b5b600061287a858286016123cc565b925050602061288b858286016123cc565b9150509250929050565b7f4e487b7100000000000000000000000000000000000000000000000000000000600052602260045260246000fd5b600060028204905060018216806128dc57607f821691505b6020821081036128ef576128ee612895565b5b50919050565b7f4552433732313a20617070726f76616c20746f2063757272656e74206f776e6560008201527f7200000000000000000000000000000000000000000000000000000000000000602082015250565b600061295160218361224f565b915061295c826128f5565b604082019050919050565b6000602082019050818103600083015261298081612944565b9050919050565b7f4552433732313a20617070726f76652063616c6c6572206973206e6f7420746f60008201527f6b656e206f776e6572206f7220617070726f76656420666f7220616c6c000000602082015250565b60006129e3603d8361224f565b91506129ee82612987565b604082019050919050565b60006020820190508181036000830152612a12816129d6565b9050919050565b7f4552433732313a2063616c6c6572206973206e6f7420746f6b656e206f776e6560008201527f72206f7220617070726f76656400000000000000000000000000000000000000602082015250565b6000612a75602d8361224f565b9150612a8082612a19565b604082019050919050565b60006020820190508181036000830152612aa481612a68565b9050919050565b7f4e487b7100000000000000000000000000000000000000000000000000000000600052601160045260246000fd5b6000612ae5826122f6565b9150612af0836122f6565b9250828202612afe816122f6565b91508282048414831517612b1557612b14612aab565b5b5092915050565b7f4e487b7100000000000000000000000000000000000000000000000000000000600052601260045260246000fd5b6000612b56826122f6565b9150612b61836122f6565b925082612b7157612b70612b1c565b5b828204905092915050565b7f4552433732313a20696e76616c696420746f6b656e2049440000000000000000600082015250565b6000612bb260188361224f565b9150612bbd82612b7c565b602082019050919050565b60006020820190508181036000830152612be181612ba5565b9050919050565b7f4552433732313a2061646472657373207a65726f206973206e6f74206120766160008201527f6c6964206f776e65720000000000000000000000000000000000000000000000602082015250565b6000612c4460298361224f565b9150612c4f82612be8565b604082019050919050565b60006020820190508181036000830152612c7381612c37565b9050919050565b7f76616c75652073656e74206e6565647320746f206265207468652073616d652060008201527f6173207468652073616c65207072696365000000000000000000000000000000602082015250565b6000612cd660318361224f565b9150612ce182612c7a565b604082019050919050565b60006020820190508181036000830152612d0581612cc9565b9050919050565b600081905092915050565b50565b6000612d27600083612d0c565b9150612d3282612d17565b600082019050919050565b6000612d4882612d1a565b9150819050919050565b7f4f776e61626c653a206e6577206f776e657220697320746865207a65726f206160008201527f6464726573730000000000000000000000000000000000000000000000000000602082015250565b6000612dae60268361224f565b9150612db982612d52565b604082019050919050565b60006020820190508181036000830152612ddd81612da1565b9050919050565b7f4552433732313a207472616e736665722066726f6d20696e636f72726563742060008201527f6f776e6572000000000000000000000000000000000000000000000000000000602082015250565b6000612e4060258361224f565b9150612e4b82612de4565b604082019050919050565b60006020820190508181036000830152612e6f81612e33565b9050919050565b7f4552433732313a207472616e7366657220746f20746865207a65726f2061646460008201527f7265737300000000000000000000000000000000000000000000000000000000602082015250565b6000612ed260248361224f565b9150612edd82612e76565b604082019050919050565b60006020820190508181036000830152612f0181612ec5565b9050919050565b7f4f776e61626c653a2063616c6c6572206973206e6f7420746865206f776e6572600082015250565b6000612f3e60208361224f565b9150612f4982612f08565b602082019050919050565b60006020820190508181036000830152612f6d81612f31565b9050919050565b7f4552433732313a20617070726f766520746f2063616c6c657200000000000000600082015250565b6000612faa60198361224f565b9150612fb582612f74565b602082019050919050565b60006020820190508181036000830152612fd981612f9d565b9050919050565b7f4552433732313a207472616e7366657220746f206e6f6e20455243373231526560008201527f63656976657220696d706c656d656e7465720000000000000000000000000000602082015250565b600061303c60328361224f565b915061304782612fe0565b604082019050919050565b6000602082019050818103600083015261306b8161302f565b9050919050565b600081905092915050565b600061308882612244565b6130928185613072565b93506130a2818560208601612260565b80840191505092915050565b60006130ba828561307d565b91506130c6828461307d565b91508190509392505050565b7f45524337323155524953746f726167653a2055524920736574206f66206e6f6e60008201527f6578697374656e7420746f6b656e000000000000000000000000000000000000602082015250565b600061312e602e8361224f565b9150613139826130d2565b604082019050919050565b6000602082019050818103600083015261315d81613121565b9050919050565b60008190508160005260206000209050919050565b60006020601f8301049050919050565b600082821b905092915050565b6000600883026131c67fffffffffffffffffffffffffffffffffffffffffffffffffffffffffffffffff82613189565b6131d08683613189565b95508019841693508086168417925050509392505050565b6000819050919050565b600061320d613208613203846122f6565b6131e8565b6122f6565b9050919050565b6000819050919050565b613227836131f2565b61323b61323382613214565b848454613196565b825550505050565b600090565b613250613243565b61325b81848461321e565b505050565b5b8181101561327f57613274600082613248565b600181019050613261565b5050565b601f8211156132c45761329581613164565b61329e84613179565b810160208510156132ad578190505b6132c16132b985613179565b830182613260565b50505b505050565b600082821c905092915050565b60006132e7600019846008026132c9565b1980831691505092915050565b600061330083836132d6565b9150826002028217905092915050565b61331982612244565b67ffffffffffffffff811115613332576133316125aa565b5b61333c82546128c4565b613347828285613283565b600060209050601f83116001811461337a5760008415613368578287015190505b61337285826132f4565b8655506133da565b601f19841661338886613164565b60005b828110156133b05784890151825560018201915060208501945060208101905061338b565b868310156133cd57848901516133c9601f8916826132d6565b8355505b6001600288020188555050505b505050505050565b60006133ed826122f6565b91506133f8836122f6565b92508282039050818111156134105761340f612aab565b5b92915050565b6000613421826122f6565b915061342c836122f6565b925082820190508082111561344457613443612aab565b5b92915050565b600081519050919050565b600082825260208201905092915050565b60006134718261344a565b61347b8185613455565b935061348b818560208601612260565b6134948161228a565b840191505092915050565b60006080820190506134b4600083018761238b565b6134c1602083018661238b565b6134ce60408301856124b4565b81810360608301526134e08184613466565b905095945050505050565b6000815190506134fa816121b5565b92915050565b6000602082840312156135165761351561217f565b5b6000613524848285016134eb565b91505092915050565b7f4552433732313a206d696e7420746f20746865207a65726f2061646472657373600082015250565b600061356360208361224f565b915061356e8261352d565b602082019050919050565b6000602082019050818103600083015261359281613556565b9050919050565b7f4552433732313a20746f6b656e20616c7265616479206d696e74656400000000600082015250565b60006135cf601c8361224f565b91506135da82613599565b602082019050919050565b600060208201905081810360008301526135fe816135c2565b905091905056fea264697066735822122035d8387bdbfd705f7ca4a9fcf82ed74ab84e67f2412da8d2cf4aa0b668877de064736f6c63430008120033",
  "linkReferences": {},
  "deployedLinkReferences": {}
}